{
  "_format": "hh-sol-artifact-1",
  "contractName": "Marketplace",
  "sourceName": "contracts/marketplace.sol",
  "abi": [
    {
      "inputs": [],
      "stateMutability": "nonpayable",
      "type": "constructor"
    },
    {
      "inputs": [
        {
          "internalType": "address",
          "name": "owner",
          "type": "address"
        }
      ],
      "name": "OwnableInvalidOwner",
      "type": "error"
    },
    {
      "inputs": [
        {
          "internalType": "address",
          "name": "account",
          "type": "address"
        }
      ],
      "name": "OwnableUnauthorizedAccount",
      "type": "error"
    },
    {
      "inputs": [],
      "name": "ReentrancyGuardReentrantCall",
      "type": "error"
    },
    {
      "anonymous": false,
      "inputs": [
        {
          "indexed": true,
          "internalType": "uint256",
          "name": "auctionId",
          "type": "uint256"
        }
      ],
      "name": "AuctionCancelled",
      "type": "event"
    },
    {
      "anonymous": false,
      "inputs": [
        {
          "indexed": true,
          "internalType": "uint256",
          "name": "auctionId",
          "type": "uint256"
        },
        {
          "indexed": true,
          "internalType": "address",
          "name": "seller",
          "type": "address"
        },
        {
          "indexed": true,
          "internalType": "address",
          "name": "nftContract",
          "type": "address"
        },
        {
          "indexed": false,
          "internalType": "uint256",
          "name": "tokenId",
          "type": "uint256"
        },
        {
          "indexed": false,
          "internalType": "uint256",
          "name": "startingPrice",
          "type": "uint256"
        },
        {
          "indexed": false,
          "internalType": "uint256",
          "name": "endTime",
          "type": "uint256"
        }
      ],
      "name": "AuctionCreated",
      "type": "event"
    },
    {
      "anonymous": false,
      "inputs": [
        {
          "indexed": true,
          "internalType": "uint256",
          "name": "auctionId",
          "type": "uint256"
        },
        {
          "indexed": false,
          "internalType": "uint256",
          "name": "oldEndTime",
          "type": "uint256"
        },
        {
          "indexed": false,
          "internalType": "uint256",
          "name": "newEndTime",
          "type": "uint256"
        }
      ],
      "name": "AuctionEndTimeChanged",
      "type": "event"
    },
    {
      "anonymous": false,
      "inputs": [
        {
          "indexed": false,
          "internalType": "uint256",
          "name": "oldFee",
          "type": "uint256"
        },
        {
          "indexed": false,
          "internalType": "uint256",
          "name": "newFee",
          "type": "uint256"
        }
      ],
      "name": "AuctionFeeUpdated",
      "type": "event"
    },
    {
      "anonymous": false,
      "inputs": [
        {
          "indexed": true,
          "internalType": "uint256",
          "name": "auctionId",
          "type": "uint256"
        },
        {
          "indexed": true,
          "internalType": "address",
          "name": "winner",
          "type": "address"
        },
        {
          "indexed": false,
          "internalType": "uint256",
          "name": "finalPrice",
          "type": "uint256"
        }
      ],
      "name": "AuctionFinalized",
      "type": "event"
    },
    {
      "anonymous": false,
      "inputs": [
        {
          "indexed": true,
          "internalType": "uint256",
          "name": "auctionId",
          "type": "uint256"
        },
        {
          "indexed": true,
          "internalType": "address",
          "name": "bidder",
          "type": "address"
        },
        {
          "indexed": false,
          "internalType": "uint256",
          "name": "bidAmount",
          "type": "uint256"
        }
      ],
      "name": "BidPlaced",
      "type": "event"
    },
    {
      "anonymous": false,
      "inputs": [
        {
          "indexed": true,
          "internalType": "address",
          "name": "oldRecipient",
          "type": "address"
        },
        {
          "indexed": true,
          "internalType": "address",
          "name": "newRecipient",
          "type": "address"
        }
      ],
      "name": "FeeRecipientUpdated",
      "type": "event"
    },
    {
      "anonymous": false,
      "inputs": [
        {
          "indexed": true,
          "internalType": "address",
          "name": "recipient",
          "type": "address"
        },
        {
          "indexed": false,
          "internalType": "uint256",
          "name": "amount",
          "type": "uint256"
        }
      ],
      "name": "FeesWithdrawn",
      "type": "event"
    },
    {
      "anonymous": false,
      "inputs": [
        {
          "indexed": true,
          "internalType": "address",
          "name": "user",
          "type": "address"
        },
        {
          "indexed": false,
          "internalType": "uint256",
          "name": "amount",
          "type": "uint256"
        }
      ],
      "name": "FundsDeposited",
      "type": "event"
    },
    {
      "anonymous": false,
      "inputs": [
        {
          "indexed": true,
          "internalType": "address",
          "name": "user",
          "type": "address"
        },
        {
          "indexed": false,
          "internalType": "uint256",
          "name": "amount",
          "type": "uint256"
        }
      ],
      "name": "FundsWithdrawn",
      "type": "event"
    },
    {
      "anonymous": false,
      "inputs": [
        {
          "indexed": true,
          "internalType": "uint256",
          "name": "listingId",
          "type": "uint256"
        }
      ],
      "name": "ListingCancelled",
      "type": "event"
    },
    {
      "anonymous": false,
      "inputs": [
        {
          "indexed": false,
          "internalType": "uint256",
          "name": "oldFee",
          "type": "uint256"
        },
        {
          "indexed": false,
          "internalType": "uint256",
          "name": "newFee",
          "type": "uint256"
        }
      ],
      "name": "ListingFeeUpdated",
      "type": "event"
    },
    {
      "anonymous": false,
      "inputs": [
        {
          "indexed": true,
          "internalType": "uint256",
          "name": "listingId",
          "type": "uint256"
        },
        {
          "indexed": true,
          "internalType": "address",
          "name": "seller",
          "type": "address"
        },
        {
          "indexed": true,
          "internalType": "address",
          "name": "nftContract",
          "type": "address"
        },
        {
          "indexed": false,
          "internalType": "uint256",
          "name": "tokenId",
          "type": "uint256"
        },
        {
          "indexed": false,
          "internalType": "uint256",
          "name": "price",
          "type": "uint256"
        }
      ],
      "name": "NFTListed",
      "type": "event"
    },
    {
      "anonymous": false,
      "inputs": [
        {
          "indexed": true,
          "internalType": "uint256",
          "name": "listingId",
          "type": "uint256"
        },
        {
          "indexed": true,
          "internalType": "address",
          "name": "buyer",
          "type": "address"
        },
        {
          "indexed": true,
          "internalType": "address",
          "name": "seller",
          "type": "address"
        },
        {
          "indexed": false,
          "internalType": "uint256",
          "name": "price",
          "type": "uint256"
        }
      ],
      "name": "NFTSold",
      "type": "event"
    },
    {
      "anonymous": false,
      "inputs": [
        {
          "indexed": true,
          "internalType": "address",
          "name": "previousOwner",
          "type": "address"
        },
        {
          "indexed": true,
          "internalType": "address",
          "name": "newOwner",
          "type": "address"
        }
      ],
      "name": "OwnershipTransferStarted",
      "type": "event"
    },
    {
      "anonymous": false,
      "inputs": [
        {
          "indexed": true,
          "internalType": "address",
          "name": "previousOwner",
          "type": "address"
        },
        {
          "indexed": true,
          "internalType": "address",
          "name": "newOwner",
          "type": "address"
        }
      ],
      "name": "OwnershipTransferred",
      "type": "event"
    },
    {
      "inputs": [],
      "name": "acceptOwnership",
      "outputs": [],
      "stateMutability": "nonpayable",
      "type": "function"
    },
    {
      "inputs": [],
      "name": "accumulatedFees",
      "outputs": [
        {
          "internalType": "uint256",
          "name": "",
          "type": "uint256"
        }
      ],
      "stateMutability": "view",
      "type": "function"
    },
    {
      "inputs": [],
      "name": "auctionCounter",
      "outputs": [
        {
          "internalType": "uint256",
          "name": "",
          "type": "uint256"
        }
      ],
      "stateMutability": "view",
      "type": "function"
    },
    {
      "inputs": [],
      "name": "auctionFee",
      "outputs": [
        {
          "internalType": "uint256",
          "name": "",
          "type": "uint256"
        }
      ],
      "stateMutability": "view",
      "type": "function"
    },
    {
      "inputs": [
        {
          "internalType": "uint256",
          "name": "",
          "type": "uint256"
        }
      ],
      "name": "auctions",
      "outputs": [
        {
          "internalType": "address",
          "name": "seller",
          "type": "address"
        },
        {
          "internalType": "address",
          "name": "nftContract",
          "type": "address"
        },
        {
          "internalType": "uint256",
          "name": "tokenId",
          "type": "uint256"
        },
        {
          "internalType": "uint256",
          "name": "startingPrice",
          "type": "uint256"
        },
        {
          "internalType": "uint256",
          "name": "highestBid",
          "type": "uint256"
        },
        {
          "internalType": "address",
          "name": "highestBidder",
          "type": "address"
        },
        {
          "internalType": "uint256",
          "name": "endTime",
          "type": "uint256"
        },
        {
          "internalType": "bool",
          "name": "cancelled",
          "type": "bool"
        },
        {
          "internalType": "bool",
          "name": "claimed",
          "type": "bool"
        }
      ],
      "stateMutability": "view",
      "type": "function"
    },
    {
      "inputs": [
        {
          "internalType": "uint256",
          "name": "listingId",
          "type": "uint256"
        },
        {
          "internalType": "bool",
          "name": "useBalance",
          "type": "bool"
        }
      ],
      "name": "buyNFT",
      "outputs": [
        {
          "internalType": "bool",
          "name": "",
          "type": "bool"
        }
      ],
      "stateMutability": "payable",
      "type": "function"
    },
    {
      "inputs": [
        {
          "internalType": "uint256",
          "name": "auctionId",
          "type": "uint256"
        }
      ],
      "name": "cancelAuction",
      "outputs": [
        {
          "internalType": "bool",
          "name": "",
          "type": "bool"
        }
      ],
      "stateMutability": "nonpayable",
      "type": "function"
    },
    {
      "inputs": [
        {
          "internalType": "uint256",
          "name": "listingId",
          "type": "uint256"
        }
      ],
      "name": "cancelListing",
      "outputs": [
        {
          "internalType": "bool",
          "name": "",
          "type": "bool"
        }
      ],
      "stateMutability": "nonpayable",
      "type": "function"
    },
    {
      "inputs": [
        {
          "internalType": "uint256",
          "name": "auctionId",
          "type": "uint256"
        },
        {
          "internalType": "uint256",
          "name": "endTime",
          "type": "uint256"
        }
      ],
      "name": "changeAuctionEndTime",
      "outputs": [
        {
          "internalType": "bool",
          "name": "",
          "type": "bool"
        }
      ],
      "stateMutability": "nonpayable",
      "type": "function"
    },
    {
      "inputs": [
        {
          "internalType": "uint256",
          "name": "auctionId",
          "type": "uint256"
        }
      ],
      "name": "claimNFT",
      "outputs": [
        {
          "internalType": "bool",
          "name": "",
          "type": "bool"
        }
      ],
      "stateMutability": "nonpayable",
      "type": "function"
    },
    {
      "inputs": [
        {
          "internalType": "address",
          "name": "nftContract",
          "type": "address"
        },
        {
          "internalType": "uint256",
          "name": "tokenId",
          "type": "uint256"
        },
        {
          "internalType": "uint256",
          "name": "startingPrice",
          "type": "uint256"
        },
        {
          "internalType": "uint256",
          "name": "duration",
          "type": "uint256"
        },
        {
          "internalType": "bool",
          "name": "useBalance",
          "type": "bool"
        }
      ],
      "name": "createAuction",
      "outputs": [
        {
          "internalType": "uint256",
          "name": "",
          "type": "uint256"
        }
      ],
      "stateMutability": "payable",
      "type": "function"
    },
    {
      "inputs": [],
      "name": "deposit",
      "outputs": [],
      "stateMutability": "payable",
      "type": "function"
    },
    {
      "inputs": [],
      "name": "feeRecipient",
      "outputs": [
        {
          "internalType": "address",
          "name": "",
          "type": "address"
        }
      ],
      "stateMutability": "view",
      "type": "function"
    },
    {
      "inputs": [
        {
          "internalType": "address",
          "name": "user",
          "type": "address"
        }
      ],
      "name": "getBalanceOfUser",
      "outputs": [
        {
          "internalType": "uint256",
          "name": "",
          "type": "uint256"
        }
      ],
      "stateMutability": "view",
      "type": "function"
    },
    {
      "inputs": [
        {
          "internalType": "address",
          "name": "nftContract",
          "type": "address"
        },
        {
          "internalType": "uint256",
          "name": "tokenId",
          "type": "uint256"
        },
        {
          "internalType": "uint256",
          "name": "price",
          "type": "uint256"
        },
        {
          "internalType": "bool",
          "name": "useBalance",
          "type": "bool"
        }
      ],
      "name": "listNFT",
      "outputs": [
        {
          "internalType": "uint256",
          "name": "",
          "type": "uint256"
        }
      ],
      "stateMutability": "payable",
      "type": "function"
    },
    {
      "inputs": [],
      "name": "listingCounter",
      "outputs": [
        {
          "internalType": "uint256",
          "name": "",
          "type": "uint256"
        }
      ],
      "stateMutability": "view",
      "type": "function"
    },
    {
      "inputs": [],
      "name": "listingFee",
      "outputs": [
        {
          "internalType": "uint256",
          "name": "",
          "type": "uint256"
        }
      ],
      "stateMutability": "view",
      "type": "function"
    },
    {
      "inputs": [
        {
          "internalType": "uint256",
          "name": "",
          "type": "uint256"
        }
      ],
      "name": "listings",
      "outputs": [
        {
          "internalType": "address",
          "name": "seller",
          "type": "address"
        },
        {
          "internalType": "address",
          "name": "nftContract",
          "type": "address"
        },
        {
          "internalType": "uint256",
          "name": "tokenId",
          "type": "uint256"
        },
        {
          "internalType": "uint256",
          "name": "price",
          "type": "uint256"
        },
        {
          "internalType": "bool",
          "name": "active",
          "type": "bool"
        }
      ],
      "stateMutability": "view",
      "type": "function"
    },
    {
      "inputs": [],
      "name": "owner",
      "outputs": [
        {
          "internalType": "address",
          "name": "",
          "type": "address"
        }
      ],
      "stateMutability": "view",
      "type": "function"
    },
    {
      "inputs": [],
      "name": "pendingOwner",
      "outputs": [
        {
          "internalType": "address",
          "name": "",
          "type": "address"
        }
      ],
      "stateMutability": "view",
      "type": "function"
    },
    {
      "inputs": [
        {
          "internalType": "address",
          "name": "",
          "type": "address"
        }
      ],
      "name": "pendingWithdrawals",
      "outputs": [
        {
          "internalType": "uint256",
          "name": "",
          "type": "uint256"
        }
      ],
      "stateMutability": "view",
      "type": "function"
    },
    {
      "inputs": [
        {
          "internalType": "uint256",
          "name": "auctionId",
          "type": "uint256"
        },
        {
          "internalType": "uint256",
          "name": "bidAmount",
          "type": "uint256"
        },
        {
          "internalType": "bool",
          "name": "useBalance",
          "type": "bool"
        }
      ],
      "name": "placeBid",
      "outputs": [
        {
          "internalType": "bool",
          "name": "",
          "type": "bool"
        }
      ],
      "stateMutability": "payable",
      "type": "function"
    },
    {
      "inputs": [],
      "name": "renounceOwnership",
      "outputs": [],
      "stateMutability": "nonpayable",
      "type": "function"
    },
    {
      "inputs": [
        {
          "internalType": "uint256",
          "name": "newFee",
          "type": "uint256"
        }
      ],
      "name": "setAuctionFee",
      "outputs": [],
      "stateMutability": "nonpayable",
      "type": "function"
    },
    {
      "inputs": [
        {
          "internalType": "address",
          "name": "newRecipient",
          "type": "address"
        }
      ],
      "name": "setFeeRecipient",
      "outputs": [],
      "stateMutability": "nonpayable",
      "type": "function"
    },
    {
      "inputs": [
        {
          "internalType": "uint256",
          "name": "newFee",
          "type": "uint256"
        }
      ],
      "name": "setListingFee",
      "outputs": [],
      "stateMutability": "nonpayable",
      "type": "function"
    },
    {
      "inputs": [
        {
          "internalType": "address",
          "name": "newOwner",
          "type": "address"
        }
      ],
      "name": "transferOwnership",
      "outputs": [],
      "stateMutability": "nonpayable",
      "type": "function"
    },
    {
      "inputs": [
        {
          "internalType": "uint256",
          "name": "amount",
          "type": "uint256"
        }
      ],
      "name": "withdraw",
      "outputs": [
        {
          "internalType": "bool",
          "name": "",
          "type": "bool"
        }
      ],
      "stateMutability": "nonpayable",
      "type": "function"
    },
    {
      "inputs": [],
      "name": "withdrawFees",
      "outputs": [],
      "stateMutability": "nonpayable",
      "type": "function"
    }
  ],
  "bytecode": "0x608060405266038d7ea4c6800060035566071afd498d000060045534801561002657600080fd5b50336001600081905550600073ffffffffffffffffffffffffffffffffffffffff168173ffffffffffffffffffffffffffffffffffffffff16036100a25760006040517f1e4fbdf70000000000000000000000000000000000000000000000000000000081526004016100999190610236565b60405180910390fd5b6100b1816100f860201b60201c565b5033600660006101000a81548173ffffffffffffffffffffffffffffffffffffffff021916908373ffffffffffffffffffffffffffffffffffffffff160217905550610251565b600260006101000a81549073ffffffffffffffffffffffffffffffffffffffff021916905561012c8161012f60201b60201c565b50565b6000600160009054906101000a900473ffffffffffffffffffffffffffffffffffffffff16905081600160006101000a81548173ffffffffffffffffffffffffffffffffffffffff021916908373ffffffffffffffffffffffffffffffffffffffff1602179055508173ffffffffffffffffffffffffffffffffffffffff168173ffffffffffffffffffffffffffffffffffffffff167f8be0079c531659141344cd1fd0a4f28419497f9722a3daafe3b4186f6b6457e060405160405180910390a35050565b600073ffffffffffffffffffffffffffffffffffffffff82169050919050565b6000610220826101f5565b9050919050565b61023081610215565b82525050565b600060208201905061024b6000830184610227565b92915050565b61470f806102606000396000f3fe6080604052600436106101c15760003560e01c8063715018a6116100f7578063d0e30db011610095578063f2fde38b11610064578063f2fde38b14610636578063f3f437031461065f578063f59e754c1461069c578063fe5c873a146106c5576101c1565b8063d0e30db014610597578063de74e57b146105a1578063e30c3978146105e2578063e74b981b1461060d576101c1565b80638da5cb5b116100d15780638da5cb5b146104d457806396b5a755146104ff578063a7e766441461053c578063b0b66e7914610567576101c1565b8063715018a61461047657806379ba50971461048d5780637f9b3969146104a4576101c1565b80634690484011610164578063587f5ed71161013e578063587f5ed7146103c55780635da544ad146103f05780636a1b7ecc146104205780636c2c9c7d1461044b576101c1565b8063469048401461033e578063476343ee14610369578063571a26a014610380576101c1565b80632e1a7d4d116101a05780632e1a7d4d14610257578063305a67a81461029457806341370f0d146102d157806345909a6f14610301576101c1565b80624e8eda146101c6578063131dbd091461020357806314525b6b1461022c575b600080fd5b3480156101d257600080fd5b506101ed60048036038101906101e89190612f8a565b610702565b6040516101fa9190612fe5565b60405180910390f35b34801561020f57600080fd5b5061022a60048036038101906102259190613000565b61097c565b005b34801561023857600080fd5b50610241610a19565b60405161024e919061303c565b60405180910390f35b34801561026357600080fd5b5061027e60048036038101906102799190613000565b610a1f565b60405161028b9190612fe5565b60405180910390f35b3480156102a057600080fd5b506102bb60048036038101906102b69190613000565b610c56565b6040516102c89190612fe5565b60405180910390f35b6102eb60048036038101906102e691906130e1565b610da5565b6040516102f8919061303c565b60405180910390f35b34801561030d57600080fd5b506103286004803603810190610323919061315c565b61132e565b604051610335919061303c565b60405180910390f35b34801561034a57600080fd5b50610353611377565b6040516103609190613198565b60405180910390f35b34801561037557600080fd5b5061037e61139d565b005b34801561038c57600080fd5b506103a760048036038101906103a29190613000565b611529565b6040516103bc999897969594939291906131b3565b60405180910390f35b3480156103d157600080fd5b506103da6115f1565b6040516103e7919061303c565b60405180910390f35b61040a60048036038101906104059190613240565b6115f7565b6040516104179190612fe5565b60405180910390f35b34801561042c57600080fd5b50610435611961565b604051610442919061303c565b60405180910390f35b34801561045757600080fd5b50610460611967565b60405161046d919061303c565b60405180910390f35b34801561048257600080fd5b5061048b61196d565b005b34801561049957600080fd5b506104a2611981565b005b6104be60048036038101906104b99190613293565b611a10565b6040516104cb9190612fe5565b60405180910390f35b3480156104e057600080fd5b506104e9611c88565b6040516104f69190613198565b60405180910390f35b34801561050b57600080fd5b5061052660048036038101906105219190613000565b611cb2565b6040516105339190612fe5565b60405180910390f35b34801561054857600080fd5b50610551611ee4565b60405161055e919061303c565b60405180910390f35b610581600480360381019061057c91906132d3565b611eea565b60405161058e919061303c565b60405180910390f35b61059f61236c565b005b3480156105ad57600080fd5b506105c860048036038101906105c39190613000565b612455565b6040516105d995949392919061333a565b60405180910390f35b3480156105ee57600080fd5b506105f76124d8565b6040516106049190613198565b60405180910390f35b34801561061957600080fd5b50610634600480360381019061062f919061315c565b612502565b005b34801561064257600080fd5b5061065d6004803603810190610658919061315c565b61263f565b005b34801561066b57600080fd5b506106866004803603810190610681919061315c565b6126ec565b604051610693919061303c565b60405180910390f35b3480156106a857600080fd5b506106c360048036038101906106be9190613000565b612704565b005b3480156106d157600080fd5b506106ec60048036038101906106e79190613000565b6127a1565b6040516106f99190612fe5565b60405180910390f35b600080600a6000858152602001908152602001600020905042831161075c576040517f08c379a0000000000000000000000000000000000000000000000000000000008152600401610753906133ea565b60405180910390fd5b8060070160009054906101000a900460ff16156107ae576040517f08c379a00000000000000000000000000000000000000000000000000000000081526004016107a590613456565b60405180910390fd5b3373ffffffffffffffffffffffffffffffffffffffff168160000160009054906101000a900473ffffffffffffffffffffffffffffffffffffffff1673ffffffffffffffffffffffffffffffffffffffff1614610840576040517f08c379a0000000000000000000000000000000000000000000000000000000008152600401610837906134c2565b60405180910390fd5b600073ffffffffffffffffffffffffffffffffffffffff168160050160009054906101000a900473ffffffffffffffffffffffffffffffffffffffff1673ffffffffffffffffffffffffffffffffffffffff16146108d3576040517f08c379a00000000000000000000000000000000000000000000000000000000081526004016108ca9061352e565b60405180910390fd5b62278d00426108e2919061357d565b831115610924576040517f08c379a000000000000000000000000000000000000000000000000000000000815260040161091b906135fd565b60405180910390fd5b600081600601549050838260060181905550847fb3ab729377f7f24105b59ba7c4d6143409b3d1dc7981e0519f45dfcc24dd1148828660405161096892919061361d565b60405180910390a260019250505092915050565b610984612b95565b662386f26fc100008111156109ce576040517f08c379a00000000000000000000000000000000000000000000000000000000081526004016109c5906136b8565b60405180910390fd5b60006003549050816003819055507f83bee1c75d00c29e66092d821c1c82aa4792fe1f058e8dff38d5d394d37916dd8183604051610a0d92919061361d565b60405180910390a15050565b60045481565b6000610a29612c1c565b6000600b60003373ffffffffffffffffffffffffffffffffffffffff1673ffffffffffffffffffffffffffffffffffffffff16815260200190815260200160002054905060008311610ab0576040517f08c379a0000000000000000000000000000000000000000000000000000000008152600401610aa79061374a565b60405180910390fd5b82811015610af3576040517f08c379a0000000000000000000000000000000000000000000000000000000008152600401610aea906137dc565b60405180910390fd5b82600b60003373ffffffffffffffffffffffffffffffffffffffff1673ffffffffffffffffffffffffffffffffffffffff1681526020019081526020016000206000828254610b4291906137fc565b9250508190555060003373ffffffffffffffffffffffffffffffffffffffff1684604051610b6f90613861565b60006040518083038185875af1925050503d8060008114610bac576040519150601f19603f3d011682016040523d82523d6000602084013e610bb1565b606091505b5050905080610bf5576040517f08c379a0000000000000000000000000000000000000000000000000000000008152600401610bec906138c2565b60405180910390fd5b3373ffffffffffffffffffffffffffffffffffffffff167feaff4b37086828766ad3268786972c0cd24259d4c87a80f9d3963a3c3d999b0d85604051610c3b919061303c565b60405180910390a2600192505050610c51612c62565b919050565b6000806009600084815260200190815260200160002090508060040160009054906101000a900460ff16610cbf576040517f08c379a0000000000000000000000000000000000000000000000000000000008152600401610cb69061392e565b60405180910390fd5b3373ffffffffffffffffffffffffffffffffffffffff168160000160009054906101000a900473ffffffffffffffffffffffffffffffffffffffff1673ffffffffffffffffffffffffffffffffffffffff1614610d51576040517f08c379a0000000000000000000000000000000000000000000000000000000008152600401610d489061399a565b60405180910390fd5b60008160040160006101000a81548160ff021916908315150217905550827f411aee90354c51b1b04cd563fcab2617142a9d50da19232d888547c8a1b7fd8a60405160405180910390a26001915050919050565b60008086905060008511610dee576040517f08c379a0000000000000000000000000000000000000000000000000000000008152600401610de590613a06565b60405180910390fd5b60008411610e31576040517f08c379a0000000000000000000000000000000000000000000000000000000008152600401610e2890613a72565b60405180910390fd5b3373ffffffffffffffffffffffffffffffffffffffff168173ffffffffffffffffffffffffffffffffffffffff16636352211e886040518263ffffffff1660e01b8152600401610e81919061303c565b602060405180830381865afa158015610e9e573d6000803e3d6000fd5b505050506040513d601f19601f82011682018060405250810190610ec29190613aa7565b73ffffffffffffffffffffffffffffffffffffffff1614610f18576040517f08c379a0000000000000000000000000000000000000000000000000000000008152600401610f0f90613b20565b60405180910390fd5b3073ffffffffffffffffffffffffffffffffffffffff168173ffffffffffffffffffffffffffffffffffffffff1663081812fc886040518263ffffffff1660e01b8152600401610f68919061303c565b602060405180830381865afa158015610f85573d6000803e3d6000fd5b505050506040513d601f19601f82011682018060405250810190610fa99190613aa7565b73ffffffffffffffffffffffffffffffffffffffff16148061104357508073ffffffffffffffffffffffffffffffffffffffff1663e985e9c533306040518363ffffffff1660e01b8152600401611001929190613b40565b602060405180830381865afa15801561101e573d6000803e3d6000fd5b505050506040513d601f19601f820116820180604052508101906110429190613b7e565b5b611082576040517f08c379a000000000000000000000000000000000000000000000000000000000815260040161107990613bf7565b60405180910390fd5b611090333460045486612c6c565b50600454600560008282546110a5919061357d565b925050819055506000600860008154809291906110c190613c17565b919050559050600085426110d5919061357d565b90506040518061012001604052803373ffffffffffffffffffffffffffffffffffffffff1681526020018a73ffffffffffffffffffffffffffffffffffffffff16815260200189815260200188815260200160008152602001600073ffffffffffffffffffffffffffffffffffffffff16815260200182815260200160001515815260200160001515815250600a600084815260200190815260200160002060008201518160000160006101000a81548173ffffffffffffffffffffffffffffffffffffffff021916908373ffffffffffffffffffffffffffffffffffffffff16021790555060208201518160010160006101000a81548173ffffffffffffffffffffffffffffffffffffffff021916908373ffffffffffffffffffffffffffffffffffffffff16021790555060408201518160020155606082015181600301556080820151816004015560a08201518160050160006101000a81548173ffffffffffffffffffffffffffffffffffffffff021916908373ffffffffffffffffffffffffffffffffffffffff16021790555060c0820151816006015560e08201518160070160006101000a81548160ff0219169083151502179055506101008201518160070160016101000a81548160ff0219169083151502179055509050508873ffffffffffffffffffffffffffffffffffffffff163373ffffffffffffffffffffffffffffffffffffffff16837f06b9e486c68303eb64052e0493f906f3d93a1b7149b6b8dcff221aebd16c35138b8b8660405161131793929190613c5f565b60405180910390a481935050505095945050505050565b6000600b60008373ffffffffffffffffffffffffffffffffffffffff1673ffffffffffffffffffffffffffffffffffffffff168152602001908152602001600020549050919050565b600660009054906101000a900473ffffffffffffffffffffffffffffffffffffffff1681565b6113a5612b95565b6113ad612c1c565b6000600554116113f2576040517f08c379a00000000000000000000000000000000000000000000000000000000081526004016113e990613ce2565b60405180910390fd5b6000600554905060006005819055506000600660009054906101000a900473ffffffffffffffffffffffffffffffffffffffff1673ffffffffffffffffffffffffffffffffffffffff168260405161144990613861565b60006040518083038185875af1925050503d8060008114611486576040519150601f19603f3d011682016040523d82523d6000602084013e61148b565b606091505b50509050806114cf576040517f08c379a00000000000000000000000000000000000000000000000000000000081526004016114c690613d4e565b60405180910390fd5b3373ffffffffffffffffffffffffffffffffffffffff167fc0819c13be868895eb93e40eaceb96de976442fa1d404e5c55f14bb65a8c489a83604051611515919061303c565b60405180910390a25050611527612c62565b565b600a6020528060005260406000206000915090508060000160009054906101000a900473ffffffffffffffffffffffffffffffffffffffff16908060010160009054906101000a900473ffffffffffffffffffffffffffffffffffffffff16908060020154908060030154908060040154908060050160009054906101000a900473ffffffffffffffffffffffffffffffffffffffff16908060060154908060070160009054906101000a900460ff16908060070160019054906101000a900460ff16905089565b60055481565b6000611601612c1c565b6000600a600086815260200190815260200160002090508060070160009054906101000a900460ff161561166a576040517f08c379a000000000000000000000000000000000000000000000000000000000815260040161166190613456565b60405180910390fd5b806006015442106116b0576040517f08c379a00000000000000000000000000000000000000000000000000000000081526004016116a790613de0565b60405180910390fd5b60008160030154905060008260040154905060008360050160009054906101000a900473ffffffffffffffffffffffffffffffffffffffff169050600086156117815760008811611736576040517f08c379a000000000000000000000000000000000000000000000000000000000815260040161172d90613e72565b60405180910390fd5b60003414611779576040517f08c379a000000000000000000000000000000000000000000000000000000000815260040161177090613f04565b60405180910390fd5b8790506117c8565b600088146117c4576040517f08c379a00000000000000000000000000000000000000000000000000000000081526004016117bb90613f96565b60405180910390fd5b3490505b8381101580156117d757508281115b611816576040517f08c379a000000000000000000000000000000000000000000000000000000000815260040161180d90614002565b60405180910390fd5b6118223334838a612c6c565b50808560040181905550338560050160006101000a81548173ffffffffffffffffffffffffffffffffffffffff021916908373ffffffffffffffffffffffffffffffffffffffff160217905550600073ffffffffffffffffffffffffffffffffffffffff168273ffffffffffffffffffffffffffffffffffffffff16146118fa5782600b60008473ffffffffffffffffffffffffffffffffffffffff1673ffffffffffffffffffffffffffffffffffffffff16815260200190815260200160002060008282546118f2919061357d565b925050819055505b3373ffffffffffffffffffffffffffffffffffffffff16897f0e54eff26401bf69b81b26f60bd85ef47f5d85275c1d268d84f68d6897431c4783604051611941919061303c565b60405180910390a360019550505050505061195a612c62565b9392505050565b60035481565b60075481565b611975612b95565b61197f6000612e50565b565b600061198b612e81565b90508073ffffffffffffffffffffffffffffffffffffffff166119ac6124d8565b73ffffffffffffffffffffffffffffffffffffffff1614611a0457806040517f118cdaa70000000000000000000000000000000000000000000000000000000081526004016119fb9190613198565b60405180910390fd5b611a0d81612e50565b50565b6000611a1a612c1c565b60006009600085815260200190815260200160002090508060040160009054906101000a900460ff16611a82576040517f08c379a0000000000000000000000000000000000000000000000000000000008152600401611a7990614094565b60405180910390fd5b600081600301549050611a9733348387612c6c565b5060008260040160006101000a81548160ff02191690831515021790555080600b60008460000160009054906101000a900473ffffffffffffffffffffffffffffffffffffffff1673ffffffffffffffffffffffffffffffffffffffff1673ffffffffffffffffffffffffffffffffffffffff1681526020019081526020016000206000828254611b28919061357d565b925050819055508160010160009054906101000a900473ffffffffffffffffffffffffffffffffffffffff1673ffffffffffffffffffffffffffffffffffffffff166323b872dd8360000160009054906101000a900473ffffffffffffffffffffffffffffffffffffffff163385600201546040518463ffffffff1660e01b8152600401611bb8939291906140b4565b600060405180830381600087803b158015611bd257600080fd5b505af1158015611be6573d6000803e3d6000fd5b505050508160000160009054906101000a900473ffffffffffffffffffffffffffffffffffffffff1673ffffffffffffffffffffffffffffffffffffffff163373ffffffffffffffffffffffffffffffffffffffff16867f8562eb94748e30bb0071e932744ce902b460c683474fcb3bfd567ffa16b1afb284604051611c6c919061303c565b60405180910390a4600192505050611c82612c62565b92915050565b6000600160009054906101000a900473ffffffffffffffffffffffffffffffffffffffff16905090565b600080600a600084815260200190815260200160002090508060070160009054906101000a900460ff1615611d1c576040517f08c379a0000000000000000000000000000000000000000000000000000000008152600401611d1390613456565b60405180910390fd5b42816006015411611d62576040517f08c379a0000000000000000000000000000000000000000000000000000000008152600401611d599061415d565b60405180910390fd5b3373ffffffffffffffffffffffffffffffffffffffff168160000160009054906101000a900473ffffffffffffffffffffffffffffffffffffffff1673ffffffffffffffffffffffffffffffffffffffff1614611df4576040517f08c379a0000000000000000000000000000000000000000000000000000000008152600401611deb906141c9565b60405180910390fd5b600073ffffffffffffffffffffffffffffffffffffffff168160050160009054906101000a900473ffffffffffffffffffffffffffffffffffffffff1673ffffffffffffffffffffffffffffffffffffffff1614611e87576040517f08c379a0000000000000000000000000000000000000000000000000000000008152600401611e7e90614235565b60405180910390fd5b42816006018190555060018160070160006101000a81548160ff021916908315150217905550827f2809c7e17bf978fbc7194c0a694b638c4215e9140cacc6c38ca36010b45697df60405160405180910390a26001915050919050565b60085481565b60008085905060008411611f33576040517f08c379a0000000000000000000000000000000000000000000000000000000008152600401611f2a906142a1565b60405180910390fd5b3373ffffffffffffffffffffffffffffffffffffffff168173ffffffffffffffffffffffffffffffffffffffff16636352211e876040518263ffffffff1660e01b8152600401611f83919061303c565b602060405180830381865afa158015611fa0573d6000803e3d6000fd5b505050506040513d601f19601f82011682018060405250810190611fc49190613aa7565b73ffffffffffffffffffffffffffffffffffffffff161461201a576040517f08c379a000000000000000000000000000000000000000000000000000000000815260040161201190613b20565b60405180910390fd5b3073ffffffffffffffffffffffffffffffffffffffff168173ffffffffffffffffffffffffffffffffffffffff1663081812fc876040518263ffffffff1660e01b815260040161206a919061303c565b602060405180830381865afa158015612087573d6000803e3d6000fd5b505050506040513d601f19601f820116820180604052508101906120ab9190613aa7565b73ffffffffffffffffffffffffffffffffffffffff16148061214557508073ffffffffffffffffffffffffffffffffffffffff1663e985e9c533306040518363ffffffff1660e01b8152600401612103929190613b40565b602060405180830381865afa158015612120573d6000803e3d6000fd5b505050506040513d601f19601f820116820180604052508101906121449190613b7e565b5b612184576040517f08c379a000000000000000000000000000000000000000000000000000000000815260040161217b90613bf7565b60405180910390fd5b612192333460035486612c6c565b50600354600560008282546121a7919061357d565b925050819055506000600760008154809291906121c390613c17565b9190505590506040518060a001604052803373ffffffffffffffffffffffffffffffffffffffff1681526020018873ffffffffffffffffffffffffffffffffffffffff168152602001878152602001868152602001600115158152506009600083815260200190815260200160002060008201518160000160006101000a81548173ffffffffffffffffffffffffffffffffffffffff021916908373ffffffffffffffffffffffffffffffffffffffff16021790555060208201518160010160006101000a81548173ffffffffffffffffffffffffffffffffffffffff021916908373ffffffffffffffffffffffffffffffffffffffff160217905550604082015181600201556060820151816003015560808201518160040160006101000a81548160ff0219169083151502179055509050508673ffffffffffffffffffffffffffffffffffffffff163373ffffffffffffffffffffffffffffffffffffffff16827fb0fe4922ac99799c17a4130d5c045ba2ecdf6e15b75b9ea84aaf0dc28724a42b898960405161235792919061361d565b60405180910390a48092505050949350505050565b600034116123af576040517f08c379a00000000000000000000000000000000000000000000000000000000081526004016123a690614333565b60405180910390fd5b34600b60003373ffffffffffffffffffffffffffffffffffffffff1673ffffffffffffffffffffffffffffffffffffffff16815260200190815260200160002060008282546123fe919061357d565b925050819055503373ffffffffffffffffffffffffffffffffffffffff167f543ba50a5eec5e6178218e364b1d0f396157b3c8fa278522c2cb7fd99407d4743460405161244b919061303c565b60405180910390a2565b60096020528060005260406000206000915090508060000160009054906101000a900473ffffffffffffffffffffffffffffffffffffffff16908060010160009054906101000a900473ffffffffffffffffffffffffffffffffffffffff16908060020154908060030154908060040160009054906101000a900460ff16905085565b6000600260009054906101000a900473ffffffffffffffffffffffffffffffffffffffff16905090565b61250a612b95565b600073ffffffffffffffffffffffffffffffffffffffff168173ffffffffffffffffffffffffffffffffffffffff1603612579576040517f08c379a00000000000000000000000000000000000000000000000000000000081526004016125709061439f565b60405180910390fd5b6000600660009054906101000a900473ffffffffffffffffffffffffffffffffffffffff16905081600660006101000a81548173ffffffffffffffffffffffffffffffffffffffff021916908373ffffffffffffffffffffffffffffffffffffffff1602179055508173ffffffffffffffffffffffffffffffffffffffff168173ffffffffffffffffffffffffffffffffffffffff167faaebcf1bfa00580e41d966056b48521fa9f202645c86d4ddf28113e617c1b1d360405160405180910390a35050565b612647612b95565b80600260006101000a81548173ffffffffffffffffffffffffffffffffffffffff021916908373ffffffffffffffffffffffffffffffffffffffff1602179055508073ffffffffffffffffffffffffffffffffffffffff166126a7611c88565b73ffffffffffffffffffffffffffffffffffffffff167f38d16b8cac22d99fc7c124b9cd0de2d3fa1faef420bfe791d8c362d765e2270060405160405180910390a350565b600b6020528060005260406000206000915090505481565b61270c612b95565b66470de4df820000811115612756576040517f08c379a000000000000000000000000000000000000000000000000000000000815260040161274d90614431565b60405180910390fd5b60006004549050816004819055507fb7f32bcfc1bb9d4976452440a378f32ae9d6b06c27af32b8a26032d3253304ef818360405161279592919061361d565b60405180910390a15050565b60006127ab612c1c565b6000600a600084815260200190815260200160002090508060070160009054906101000a900460ff1615612814576040517f08c379a000000000000000000000000000000000000000000000000000000000815260040161280b90613456565b60405180910390fd5b806006015442101561285b576040517f08c379a00000000000000000000000000000000000000000000000000000000081526004016128529061449d565b60405180910390fd5b8060070160019054906101000a900460ff16156128ad576040517f08c379a00000000000000000000000000000000000000000000000000000000081526004016128a490614509565b60405180910390fd5b8060050160009054906101000a900473ffffffffffffffffffffffffffffffffffffffff1673ffffffffffffffffffffffffffffffffffffffff163373ffffffffffffffffffffffffffffffffffffffff161461293f576040517f08c379a000000000000000000000000000000000000000000000000000000000815260040161293690614575565b60405180910390fd5b60018160070160016101000a81548160ff02191690831515021790555060008160050160009054906101000a900473ffffffffffffffffffffffffffffffffffffffff169050600073ffffffffffffffffffffffffffffffffffffffff168173ffffffffffffffffffffffffffffffffffffffff16036129f4576040517f08c379a00000000000000000000000000000000000000000000000000000000081526004016129eb906145e1565b60405180910390fd5b6000826004015490508260010160009054906101000a900473ffffffffffffffffffffffffffffffffffffffff1673ffffffffffffffffffffffffffffffffffffffff166323b872dd8460000160009054906101000a900473ffffffffffffffffffffffffffffffffffffffff168486600201546040518463ffffffff1660e01b8152600401612a86939291906140b4565b600060405180830381600087803b158015612aa057600080fd5b505af1158015612ab4573d6000803e3d6000fd5b5050505080600b60008560000160009054906101000a900473ffffffffffffffffffffffffffffffffffffffff1673ffffffffffffffffffffffffffffffffffffffff1673ffffffffffffffffffffffffffffffffffffffff1681526020019081526020016000206000828254612b2b919061357d565b925050819055508173ffffffffffffffffffffffffffffffffffffffff16857f4d9113a1377d665eaa1f9168a9c9080f2e488cb820b10149de3d6d2e0f2780c783604051612b79919061303c565b60405180910390a360019350505050612b90612c62565b919050565b612b9d612e81565b73ffffffffffffffffffffffffffffffffffffffff16612bbb611c88565b73ffffffffffffffffffffffffffffffffffffffff1614612c1a57612bde612e81565b6040517f118cdaa7000000000000000000000000000000000000000000000000000000008152600401612c119190613198565b60405180910390fd5b565b600260005403612c58576040517f3ee5aeb500000000000000000000000000000000000000000000000000000000815260040160405180910390fd5b6002600081905550565b6001600081905550565b60008115612d975782600b60008773ffffffffffffffffffffffffffffffffffffffff1673ffffffffffffffffffffffffffffffffffffffff168152602001908152602001600020541015612cf6576040517f08c379a0000000000000000000000000000000000000000000000000000000008152600401612ced9061464d565b60405180910390fd5b60008414612d39576040517f08c379a0000000000000000000000000000000000000000000000000000000008152600401612d3090613f04565b60405180910390fd5b82600b60008773ffffffffffffffffffffffffffffffffffffffff1673ffffffffffffffffffffffffffffffffffffffff1681526020019081526020016000206000828254612d8891906137fc565b92505081905550829050612e48565b82841015612dda576040517f08c379a0000000000000000000000000000000000000000000000000000000008152600401612dd1906146b9565b60405180910390fd5b82841115612e44578284612dee91906137fc565b600b60008773ffffffffffffffffffffffffffffffffffffffff1673ffffffffffffffffffffffffffffffffffffffff1681526020019081526020016000206000828254612e3c919061357d565b925050819055505b8290505b949350505050565b600260006101000a81549073ffffffffffffffffffffffffffffffffffffffff0219169055612e7e81612e89565b50565b600033905090565b6000600160009054906101000a900473ffffffffffffffffffffffffffffffffffffffff16905081600160006101000a81548173ffffffffffffffffffffffffffffffffffffffff021916908373ffffffffffffffffffffffffffffffffffffffff1602179055508173ffffffffffffffffffffffffffffffffffffffff168173ffffffffffffffffffffffffffffffffffffffff167f8be0079c531659141344cd1fd0a4f28419497f9722a3daafe3b4186f6b6457e060405160405180910390a35050565b600080fd5b6000819050919050565b612f6781612f54565b8114612f7257600080fd5b50565b600081359050612f8481612f5e565b92915050565b60008060408385031215612fa157612fa0612f4f565b5b6000612faf85828601612f75565b9250506020612fc085828601612f75565b9150509250929050565b60008115159050919050565b612fdf81612fca565b82525050565b6000602082019050612ffa6000830184612fd6565b92915050565b60006020828403121561301657613015612f4f565b5b600061302484828501612f75565b91505092915050565b61303681612f54565b82525050565b6000602082019050613051600083018461302d565b92915050565b600073ffffffffffffffffffffffffffffffffffffffff82169050919050565b600061308282613057565b9050919050565b61309281613077565b811461309d57600080fd5b50565b6000813590506130af81613089565b92915050565b6130be81612fca565b81146130c957600080fd5b50565b6000813590506130db816130b5565b92915050565b600080600080600060a086880312156130fd576130fc612f4f565b5b600061310b888289016130a0565b955050602061311c88828901612f75565b945050604061312d88828901612f75565b935050606061313e88828901612f75565b925050608061314f888289016130cc565b9150509295509295909350565b60006020828403121561317257613171612f4f565b5b6000613180848285016130a0565b91505092915050565b61319281613077565b82525050565b60006020820190506131ad6000830184613189565b92915050565b6000610120820190506131c9600083018c613189565b6131d6602083018b613189565b6131e3604083018a61302d565b6131f0606083018961302d565b6131fd608083018861302d565b61320a60a0830187613189565b61321760c083018661302d565b61322460e0830185612fd6565b613232610100830184612fd6565b9a9950505050505050505050565b60008060006060848603121561325957613258612f4f565b5b600061326786828701612f75565b935050602061327886828701612f75565b9250506040613289868287016130cc565b9150509250925092565b600080604083850312156132aa576132a9612f4f565b5b60006132b885828601612f75565b92505060206132c9858286016130cc565b9150509250929050565b600080600080608085870312156132ed576132ec612f4f565b5b60006132fb878288016130a0565b945050602061330c87828801612f75565b935050604061331d87828801612f75565b925050606061332e878288016130cc565b91505092959194509250565b600060a08201905061334f6000830188613189565b61335c6020830187613189565b613369604083018661302d565b613376606083018561302d565b6133836080830184612fd6565b9695505050505050565b600082825260208201905092915050565b7f456e6454696d652068617320676f6e6500000000000000000000000000000000600082015250565b60006133d460108361338d565b91506133df8261339e565b602082019050919050565b60006020820190508181036000830152613403816133c7565b9050919050565b7f41756374696f6e2063616e63656c6c6564000000000000000000000000000000600082015250565b600061344060118361338d565b915061344b8261340a565b602082019050919050565b6000602082019050818103600083015261346f81613433565b9050919050565b7f4f6e6c792041756374696f6e206f776e65722063616e20646f20746869730000600082015250565b60006134ac601e8361338d565b91506134b782613476565b602082019050919050565b600060208201905081810360008301526134db8161349f565b9050919050565b7f43616e6e6f74206368616e6765206166746572206269647320706c6163656400600082015250565b6000613518601f8361338d565b9150613523826134e2565b602082019050919050565b600060208201905081810360008301526135478161350b565b9050919050565b7f4e487b7100000000000000000000000000000000000000000000000000000000600052601160045260246000fd5b600061358882612f54565b915061359383612f54565b92508282019050808211156135ab576135aa61354e565b5b92915050565b7f457874656e73696f6e20746f6f206c6f6e670000000000000000000000000000600082015250565b60006135e760128361338d565b91506135f2826135b1565b602082019050919050565b60006020820190508181036000830152613616816135da565b9050919050565b6000604082019050613632600083018561302d565b61363f602083018461302d565b9392505050565b7f4c697374696e67206665652063616e6e6f742065786365656420302e3031204560008201527f5448000000000000000000000000000000000000000000000000000000000000602082015250565b60006136a260228361338d565b91506136ad82613646565b604082019050919050565b600060208201905081810360008301526136d181613695565b9050919050565b7f5769746864726177616c20616d6f756e74206d7573742062652067726561746560008201527f72207468616e207a65726f000000000000000000000000000000000000000000602082015250565b6000613734602b8361338d565b915061373f826136d8565b604082019050919050565b6000602082019050818103600083015261376381613727565b9050919050565b7f5769746864726177616c20616d6f756e74206d757374206265206c657373207460008201527f68616e206163636f756e742062616c616e636500000000000000000000000000602082015250565b60006137c660338361338d565b91506137d18261376a565b604082019050919050565b600060208201905081810360008301526137f5816137b9565b9050919050565b600061380782612f54565b915061381283612f54565b925082820390508181111561382a5761382961354e565b5b92915050565b600081905092915050565b50565b600061384b600083613830565b91506138568261383b565b600082019050919050565b600061386c8261383e565b9150819050919050565b7f5769746864726177616c206661696c6564000000000000000000000000000000600082015250565b60006138ac60118361338d565b91506138b782613876565b602082019050919050565b600060208201905081810360008301526138db8161389f565b9050919050565b7f4e6f2073756368204c697374696e670000000000000000000000000000000000600082015250565b6000613918600f8361338d565b9150613923826138e2565b602082019050919050565b600060208201905081810360008301526139478161390b565b9050919050565b7f4f6e6c792073656c6c65722063616e2063616e63656c206c697374696e670000600082015250565b6000613984601e8361338d565b915061398f8261394e565b602082019050919050565b600060208201905081810360008301526139b381613977565b9050919050565b7f50726963652073686f756c64206e6f74206265207a65726f0000000000000000600082015250565b60006139f060188361338d565b91506139fb826139ba565b602082019050919050565b60006020820190508181036000830152613a1f816139e3565b9050919050565b7f4475726174696f6e2073686f756c64206e6f74206265207a65726f0000000000600082015250565b6000613a5c601b8361338d565b9150613a6782613a26565b602082019050919050565b60006020820190508181036000830152613a8b81613a4f565b9050919050565b600081519050613aa181613089565b92915050565b600060208284031215613abd57613abc612f4f565b5b6000613acb84828501613a92565b91505092915050565b7f4e6f7420746865206f776e657200000000000000000000000000000000000000600082015250565b6000613b0a600d8361338d565b9150613b1582613ad4565b602082019050919050565b60006020820190508181036000830152613b3981613afd565b9050919050565b6000604082019050613b556000830185613189565b613b626020830184613189565b9392505050565b600081519050613b78816130b5565b92915050565b600060208284031215613b9457613b93612f4f565b5b6000613ba284828501613b69565b91505092915050565b7f4d61726b6574706c616365206e6f7420617070726f7665640000000000000000600082015250565b6000613be160188361338d565b9150613bec82613bab565b602082019050919050565b60006020820190508181036000830152613c1081613bd4565b9050919050565b6000613c2282612f54565b91507fffffffffffffffffffffffffffffffffffffffffffffffffffffffffffffffff8203613c5457613c5361354e565b5b600182019050919050565b6000606082019050613c74600083018661302d565b613c81602083018561302d565b613c8e604083018461302d565b949350505050565b7f4e6f206665657320746f20776974686472617700000000000000000000000000600082015250565b6000613ccc60138361338d565b9150613cd782613c96565b602082019050919050565b60006020820190508181036000830152613cfb81613cbf565b9050919050565b7f466565207769746864726177616c206661696c65640000000000000000000000600082015250565b6000613d3860158361338d565b9150613d4382613d02565b602082019050919050565b60006020820190508181036000830152613d6781613d2b565b9050919050565b7f41756374696f6e20686173206265656e20656e646564206f7220646f65736e2760008201527f7420657869737400000000000000000000000000000000000000000000000000602082015250565b6000613dca60278361338d565b9150613dd582613d6e565b604082019050919050565b60006020820190508181036000830152613df981613dbd565b9050919050565b7f42696420616d6f756e74206d757374206265207370656369666965642077686560008201527f6e207573696e672062616c616e63650000000000000000000000000000000000602082015250565b6000613e5c602f8361338d565b9150613e6782613e00565b604082019050919050565b60006020820190508181036000830152613e8b81613e4f565b9050919050565b7f43616e6e6f742073656e6420455448207768656e207573696e672062616c616e60008201527f6365000000000000000000000000000000000000000000000000000000000000602082015250565b6000613eee60228361338d565b9150613ef982613e92565b604082019050919050565b60006020820190508181036000830152613f1d81613ee1565b9050919050565b7f42696420616d6f756e742073686f756c642062652030207768656e2073656e6460008201527f696e672045544800000000000000000000000000000000000000000000000000602082015250565b6000613f8060278361338d565b9150613f8b82613f24565b604082019050919050565b60006020820190508181036000830152613faf81613f73565b9050919050565b7f496e73756666696369656e74205061796d656e74000000000000000000000000600082015250565b6000613fec60148361338d565b9150613ff782613fb6565b602082019050919050565b6000602082019050818103600083015261401b81613fdf565b9050919050565b7f4c697374696e6720686173206265656e20736f6c64206f7220646f65736e277460008201527f2065786973740000000000000000000000000000000000000000000000000000602082015250565b600061407e60268361338d565b915061408982614022565b604082019050919050565b600060208201905081810360008301526140ad81614071565b9050919050565b60006060820190506140c96000830186613189565b6140d66020830185613189565b6140e3604083018461302d565b949350505050565b7f41756374696f6e20616c726561647920656e646564206f7220646f65736e277460008201527f2065786973740000000000000000000000000000000000000000000000000000602082015250565b600061414760268361338d565b9150614152826140eb565b604082019050919050565b600060208201905081810360008301526141768161413a565b9050919050565b7f4f6e6c792041756374696f6e206f776e65722063616e2063616e63656c000000600082015250565b60006141b3601d8361338d565b91506141be8261417d565b602082019050919050565b600060208201905081810360008301526141e2816141a6565b9050919050565b7f43616e6e6f742063616e63656c206166746572206269647320706c6163656400600082015250565b600061421f601f8361338d565b915061422a826141e9565b602082019050919050565b6000602082019050818103600083015261424e81614212565b9050919050565b7f5072696365206d7573742062652067726561746572207468616e207a65726f00600082015250565b600061428b601f8361338d565b915061429682614255565b602082019050919050565b600060208201905081810360008301526142ba8161427e565b9050919050565b7f4465706f73697420616d6f756e74206d7573742062652067726561746572207460008201527f68616e207a65726f000000000000000000000000000000000000000000000000602082015250565b600061431d60288361338d565b9150614328826142c1565b604082019050919050565b6000602082019050818103600083015261434c81614310565b9050919050565b7f496e76616c696420616464726573730000000000000000000000000000000000600082015250565b6000614389600f8361338d565b915061439482614353565b602082019050919050565b600060208201905081810360008301526143b88161437c565b9050919050565b7f41756374696f6e206665652063616e6e6f742065786365656420302e3032204560008201527f5448000000000000000000000000000000000000000000000000000000000000602082015250565b600061441b60228361338d565b9150614426826143bf565b604082019050919050565b6000602082019050818103600083015261444a8161440e565b9050919050565b7f41756374696f6e206861736e277420656e646564000000000000000000000000600082015250565b600061448760148361338d565b915061449282614451565b602082019050919050565b600060208201905081810360008301526144b68161447a565b9050919050565b7f416c726561647920636c61696d65640000000000000000000000000000000000600082015250565b60006144f3600f8361338d565b91506144fe826144bd565b602082019050919050565b60006020820190508181036000830152614522816144e6565b9050919050565b7f4f6e6c792057696e6e65722063616e20636c61696d0000000000000000000000600082015250565b600061455f60158361338d565b915061456a82614529565b602082019050919050565b6000602082019050818103600083015261458e81614552565b9050919050565b7f4e6f206269647320706c61636564000000000000000000000000000000000000600082015250565b60006145cb600e8361338d565b91506145d682614595565b602082019050919050565b600060208201905081810360008301526145fa816145be565b9050919050565b7f496e73756666696369656e742062616c616e6365000000000000000000000000600082015250565b600061463760148361338d565b915061464282614601565b602082019050919050565b600060208201905081810360008301526146668161462a565b9050919050565b7f496e73756666696369656e74207061796d656e74000000000000000000000000600082015250565b60006146a360148361338d565b91506146ae8261466d565b602082019050919050565b600060208201905081810360008301526146d281614696565b905091905056fea264697066735822122094a52d2424db79f30085520050c339ce11d5bc94b26cbfaf5f54ea82e417956364736f6c634300081c0033",
  "linkReferences": {},
  "deployedLinkReferences": {}
}