{
  "_format": "hh-sol-artifact-1",
  "contractName": "NFT",
  "sourceName": "contracts/nft.sol",
  "abi": [
    {
      "inputs": [
        {
          "internalType": "string",
          "name": "name",
          "type": "string"
        },
        {
          "internalType": "string",
          "name": "symbol",
          "type": "string"
        }
      ],
      "stateMutability": "nonpayable",
      "type": "constructor"
    },
    {
      "inputs": [
        {
          "internalType": "address",
          "name": "sender",
          "type": "address"
        },
        {
          "internalType": "uint256",
          "name": "tokenId",
          "type": "uint256"
        },
        {
          "internalType": "address",
          "name": "owner",
          "type": "address"
        }
      ],
      "name": "ERC721IncorrectOwner",
      "type": "error"
    },
    {
      "inputs": [
        {
          "internalType": "address",
          "name": "operator",
          "type": "address"
        },
        {
          "internalType": "uint256",
          "name": "tokenId",
          "type": "uint256"
        }
      ],
      "name": "ERC721InsufficientApproval",
      "type": "error"
    },
    {
      "inputs": [
        {
          "internalType": "address",
          "name": "approver",
          "type": "address"
        }
      ],
      "name": "ERC721InvalidApprover",
      "type": "error"
    },
    {
      "inputs": [
        {
          "internalType": "address",
          "name": "operator",
          "type": "address"
        }
      ],
      "name": "ERC721InvalidOperator",
      "type": "error"
    },
    {
      "inputs": [
        {
          "internalType": "address",
          "name": "owner",
          "type": "address"
        }
      ],
      "name": "ERC721InvalidOwner",
      "type": "error"
    },
    {
      "inputs": [
        {
          "internalType": "address",
          "name": "receiver",
          "type": "address"
        }
      ],
      "name": "ERC721InvalidReceiver",
      "type": "error"
    },
    {
      "inputs": [
        {
          "internalType": "address",
          "name": "sender",
          "type": "address"
        }
      ],
      "name": "ERC721InvalidSender",
      "type": "error"
    },
    {
      "inputs": [
        {
          "internalType": "uint256",
          "name": "tokenId",
          "type": "uint256"
        }
      ],
      "name": "ERC721NonexistentToken",
      "type": "error"
    },
    {
      "inputs": [
        {
          "internalType": "address",
          "name": "owner",
          "type": "address"
        }
      ],
      "name": "OwnableInvalidOwner",
      "type": "error"
    },
    {
      "inputs": [
        {
          "internalType": "address",
          "name": "account",
          "type": "address"
        }
      ],
      "name": "OwnableUnauthorizedAccount",
      "type": "error"
    },
    {
      "anonymous": false,
      "inputs": [
        {
          "indexed": true,
          "internalType": "address",
          "name": "owner",
          "type": "address"
        },
        {
          "indexed": true,
          "internalType": "address",
          "name": "approved",
          "type": "address"
        },
        {
          "indexed": true,
          "internalType": "uint256",
          "name": "tokenId",
          "type": "uint256"
        }
      ],
      "name": "Approval",
      "type": "event"
    },
    {
      "anonymous": false,
      "inputs": [
        {
          "indexed": true,
          "internalType": "address",
          "name": "owner",
          "type": "address"
        },
        {
          "indexed": true,
          "internalType": "address",
          "name": "operator",
          "type": "address"
        },
        {
          "indexed": false,
          "internalType": "bool",
          "name": "approved",
          "type": "bool"
        }
      ],
      "name": "ApprovalForAll",
      "type": "event"
    },
    {
      "anonymous": false,
      "inputs": [
        {
          "indexed": false,
          "internalType": "uint256",
          "name": "_fromTokenId",
          "type": "uint256"
        },
        {
          "indexed": false,
          "internalType": "uint256",
          "name": "_toTokenId",
          "type": "uint256"
        }
      ],
      "name": "BatchMetadataUpdate",
      "type": "event"
    },
    {
      "anonymous": false,
      "inputs": [
        {
          "indexed": true,
          "internalType": "address",
          "name": "recipient",
          "type": "address"
        },
        {
          "indexed": false,
          "internalType": "uint256",
          "name": "amount",
          "type": "uint256"
        }
      ],
      "name": "FundsWithdrawn",
      "type": "event"
    },
    {
      "anonymous": false,
      "inputs": [
        {
          "indexed": false,
          "internalType": "uint256",
          "name": "_tokenId",
          "type": "uint256"
        }
      ],
      "name": "MetadataUpdate",
      "type": "event"
    },
    {
      "anonymous": false,
      "inputs": [
        {
          "indexed": false,
          "internalType": "uint256",
          "name": "oldFee",
          "type": "uint256"
        },
        {
          "indexed": false,
          "internalType": "uint256",
          "name": "newFee",
          "type": "uint256"
        }
      ],
      "name": "MintingFeeUpdated",
      "type": "event"
    },
    {
      "anonymous": false,
      "inputs": [
        {
          "indexed": true,
          "internalType": "address",
          "name": "previousOwner",
          "type": "address"
        },
        {
          "indexed": true,
          "internalType": "address",
          "name": "newOwner",
          "type": "address"
        }
      ],
      "name": "OwnershipTransferStarted",
      "type": "event"
    },
    {
      "anonymous": false,
      "inputs": [
        {
          "indexed": true,
          "internalType": "address",
          "name": "previousOwner",
          "type": "address"
        },
        {
          "indexed": true,
          "internalType": "address",
          "name": "newOwner",
          "type": "address"
        }
      ],
      "name": "OwnershipTransferred",
      "type": "event"
    },
    {
      "anonymous": false,
      "inputs": [
        {
          "indexed": true,
          "internalType": "uint256",
          "name": "tokenId",
          "type": "uint256"
        },
        {
          "indexed": true,
          "internalType": "address",
          "name": "owner",
          "type": "address"
        },
        {
          "indexed": false,
          "internalType": "string",
          "name": "uri",
          "type": "string"
        }
      ],
      "name": "TokenCreated",
      "type": "event"
    },
    {
      "anonymous": false,
      "inputs": [
        {
          "indexed": true,
          "internalType": "address",
          "name": "from",
          "type": "address"
        },
        {
          "indexed": true,
          "internalType": "address",
          "name": "to",
          "type": "address"
        },
        {
          "indexed": true,
          "internalType": "uint256",
          "name": "tokenId",
          "type": "uint256"
        }
      ],
      "name": "Transfer",
      "type": "event"
    },
    {
      "inputs": [],
      "name": "MAX_SUPPLY",
      "outputs": [
        {
          "internalType": "uint256",
          "name": "",
          "type": "uint256"
        }
      ],
      "stateMutability": "view",
      "type": "function"
    },
    {
      "inputs": [],
      "name": "acceptOwnership",
      "outputs": [],
      "stateMutability": "nonpayable",
      "type": "function"
    },
    {
      "inputs": [
        {
          "internalType": "address",
          "name": "to",
          "type": "address"
        },
        {
          "internalType": "uint256",
          "name": "tokenId",
          "type": "uint256"
        }
      ],
      "name": "approve",
      "outputs": [],
      "stateMutability": "nonpayable",
      "type": "function"
    },
    {
      "inputs": [
        {
          "internalType": "address",
          "name": "owner",
          "type": "address"
        }
      ],
      "name": "balanceOf",
      "outputs": [
        {
          "internalType": "uint256",
          "name": "",
          "type": "uint256"
        }
      ],
      "stateMutability": "view",
      "type": "function"
    },
    {
      "inputs": [
        {
          "internalType": "uint256",
          "name": "tokenId",
          "type": "uint256"
        }
      ],
      "name": "getApproved",
      "outputs": [
        {
          "internalType": "address",
          "name": "",
          "type": "address"
        }
      ],
      "stateMutability": "view",
      "type": "function"
    },
    {
      "inputs": [
        {
          "internalType": "address",
          "name": "owner",
          "type": "address"
        }
      ],
      "name": "getTokenCountOwnedBy",
      "outputs": [
        {
          "internalType": "uint256",
          "name": "",
          "type": "uint256"
        }
      ],
      "stateMutability": "view",
      "type": "function"
    },
    {
      "inputs": [
        {
          "internalType": "address",
          "name": "owner",
          "type": "address"
        }
      ],
      "name": "getTokensOwnedBy",
      "outputs": [
        {
          "internalType": "uint256[]",
          "name": "",
          "type": "uint256[]"
        }
      ],
      "stateMutability": "view",
      "type": "function"
    },
    {
      "inputs": [],
      "name": "getTotalSupply",
      "outputs": [
        {
          "internalType": "uint256",
          "name": "",
          "type": "uint256"
        }
      ],
      "stateMutability": "view",
      "type": "function"
    },
    {
      "inputs": [
        {
          "internalType": "address",
          "name": "owner",
          "type": "address"
        },
        {
          "internalType": "address",
          "name": "operator",
          "type": "address"
        }
      ],
      "name": "isApprovedForAll",
      "outputs": [
        {
          "internalType": "bool",
          "name": "",
          "type": "bool"
        }
      ],
      "stateMutability": "view",
      "type": "function"
    },
    {
      "inputs": [
        {
          "internalType": "string",
          "name": "uri",
          "type": "string"
        }
      ],
      "name": "mint",
      "outputs": [
        {
          "internalType": "uint256",
          "name": "",
          "type": "uint256"
        }
      ],
      "stateMutability": "payable",
      "type": "function"
    },
    {
      "inputs": [],
      "name": "mintingFee",
      "outputs": [
        {
          "internalType": "uint256",
          "name": "",
          "type": "uint256"
        }
      ],
      "stateMutability": "view",
      "type": "function"
    },
    {
      "inputs": [],
      "name": "name",
      "outputs": [
        {
          "internalType": "string",
          "name": "",
          "type": "string"
        }
      ],
      "stateMutability": "view",
      "type": "function"
    },
    {
      "inputs": [],
      "name": "owner",
      "outputs": [
        {
          "internalType": "address",
          "name": "",
          "type": "address"
        }
      ],
      "stateMutability": "view",
      "type": "function"
    },
    {
      "inputs": [
        {
          "internalType": "uint256",
          "name": "tokenId",
          "type": "uint256"
        }
      ],
      "name": "ownerOf",
      "outputs": [
        {
          "internalType": "address",
          "name": "",
          "type": "address"
        }
      ],
      "stateMutability": "view",
      "type": "function"
    },
    {
      "inputs": [],
      "name": "pendingOwner",
      "outputs": [
        {
          "internalType": "address",
          "name": "",
          "type": "address"
        }
      ],
      "stateMutability": "view",
      "type": "function"
    },
    {
      "inputs": [],
      "name": "renounceOwnership",
      "outputs": [],
      "stateMutability": "nonpayable",
      "type": "function"
    },
    {
      "inputs": [
        {
          "internalType": "address",
          "name": "from",
          "type": "address"
        },
        {
          "internalType": "address",
          "name": "to",
          "type": "address"
        },
        {
          "internalType": "uint256",
          "name": "tokenId",
          "type": "uint256"
        }
      ],
      "name": "safeTransferFrom",
      "outputs": [],
      "stateMutability": "nonpayable",
      "type": "function"
    },
    {
      "inputs": [
        {
          "internalType": "address",
          "name": "from",
          "type": "address"
        },
        {
          "internalType": "address",
          "name": "to",
          "type": "address"
        },
        {
          "internalType": "uint256",
          "name": "tokenId",
          "type": "uint256"
        },
        {
          "internalType": "bytes",
          "name": "data",
          "type": "bytes"
        }
      ],
      "name": "safeTransferFrom",
      "outputs": [],
      "stateMutability": "nonpayable",
      "type": "function"
    },
    {
      "inputs": [
        {
          "internalType": "address",
          "name": "operator",
          "type": "address"
        },
        {
          "internalType": "bool",
          "name": "approved",
          "type": "bool"
        }
      ],
      "name": "setApprovalForAll",
      "outputs": [],
      "stateMutability": "nonpayable",
      "type": "function"
    },
    {
      "inputs": [
        {
          "internalType": "uint256",
          "name": "newFee",
          "type": "uint256"
        }
      ],
      "name": "setMintingFee",
      "outputs": [],
      "stateMutability": "nonpayable",
      "type": "function"
    },
    {
      "inputs": [
        {
          "internalType": "bytes4",
          "name": "interfaceId",
          "type": "bytes4"
        }
      ],
      "name": "supportsInterface",
      "outputs": [
        {
          "internalType": "bool",
          "name": "",
          "type": "bool"
        }
      ],
      "stateMutability": "view",
      "type": "function"
    },
    {
      "inputs": [],
      "name": "symbol",
      "outputs": [
        {
          "internalType": "string",
          "name": "",
          "type": "string"
        }
      ],
      "stateMutability": "view",
      "type": "function"
    },
    {
      "inputs": [
        {
          "internalType": "uint256",
          "name": "tokenId",
          "type": "uint256"
        }
      ],
      "name": "tokenURI",
      "outputs": [
        {
          "internalType": "string",
          "name": "",
          "type": "string"
        }
      ],
      "stateMutability": "view",
      "type": "function"
    },
    {
      "inputs": [
        {
          "internalType": "address",
          "name": "from",
          "type": "address"
        },
        {
          "internalType": "address",
          "name": "to",
          "type": "address"
        },
        {
          "internalType": "uint256",
          "name": "tokenId",
          "type": "uint256"
        }
      ],
      "name": "transferFrom",
      "outputs": [],
      "stateMutability": "nonpayable",
      "type": "function"
    },
    {
      "inputs": [
        {
          "internalType": "address",
          "name": "newOwner",
          "type": "address"
        }
      ],
      "name": "transferOwnership",
      "outputs": [],
      "stateMutability": "nonpayable",
      "type": "function"
    },
    {
      "inputs": [],
      "name": "withdraw",
      "outputs": [],
      "stateMutability": "nonpayable",
      "type": "function"
    }
  ],
  "bytecode": "0x60806040526509184e72a000600a5534801561001a57600080fd5b506040516137e93803806137e9833981810160405281019061003c919061035c565b338282816000908161004e91906105f5565b50806001908161005e91906105f5565b505050600073ffffffffffffffffffffffffffffffffffffffff168173ffffffffffffffffffffffffffffffffffffffff16036100d35760006040517f1e4fbdf70000000000000000000000000000000000000000000000000000000081526004016100ca9190610708565b60405180910390fd5b6100e2816100ea60201b60201c565b505050610723565b600860006101000a81549073ffffffffffffffffffffffffffffffffffffffff021916905561011e8161012160201b60201c565b50565b6000600760009054906101000a900473ffffffffffffffffffffffffffffffffffffffff16905081600760006101000a81548173ffffffffffffffffffffffffffffffffffffffff021916908373ffffffffffffffffffffffffffffffffffffffff1602179055508173ffffffffffffffffffffffffffffffffffffffff168173ffffffffffffffffffffffffffffffffffffffff167f8be0079c531659141344cd1fd0a4f28419497f9722a3daafe3b4186f6b6457e060405160405180910390a35050565b6000604051905090565b600080fd5b600080fd5b600080fd5b600080fd5b6000601f19601f8301169050919050565b7f4e487b7100000000000000000000000000000000000000000000000000000000600052604160045260246000fd5b61024e82610205565b810181811067ffffffffffffffff8211171561026d5761026c610216565b5b80604052505050565b60006102806101e7565b905061028c8282610245565b919050565b600067ffffffffffffffff8211156102ac576102ab610216565b5b6102b582610205565b9050602081019050919050565b60005b838110156102e05780820151818401526020810190506102c5565b60008484015250505050565b60006102ff6102fa84610291565b610276565b90508281526020810184848401111561031b5761031a610200565b5b6103268482856102c2565b509392505050565b600082601f830112610343576103426101fb565b5b81516103538482602086016102ec565b91505092915050565b60008060408385031215610373576103726101f1565b5b600083015167ffffffffffffffff811115610391576103906101f6565b5b61039d8582860161032e565b925050602083015167ffffffffffffffff8111156103be576103bd6101f6565b5b6103ca8582860161032e565b9150509250929050565b600081519050919050565b7f4e487b7100000000000000000000000000000000000000000000000000000000600052602260045260246000fd5b6000600282049050600182168061042657607f821691505b602082108103610439576104386103df565b5b50919050565b60008190508160005260206000209050919050565b60006020601f8301049050919050565b600082821b905092915050565b6000600883026104a17fffffffffffffffffffffffffffffffffffffffffffffffffffffffffffffffff82610464565b6104ab8683610464565b95508019841693508086168417925050509392505050565b6000819050919050565b6000819050919050565b60006104f26104ed6104e8846104c3565b6104cd565b6104c3565b9050919050565b6000819050919050565b61050c836104d7565b610520610518826104f9565b848454610471565b825550505050565b600090565b610535610528565b610540818484610503565b505050565b5b818110156105645761055960008261052d565b600181019050610546565b5050565b601f8211156105a95761057a8161043f565b61058384610454565b81016020851015610592578190505b6105a661059e85610454565b830182610545565b50505b505050565b600082821c905092915050565b60006105cc600019846008026105ae565b1980831691505092915050565b60006105e583836105bb565b9150826002028217905092915050565b6105fe826103d4565b67ffffffffffffffff81111561061757610616610216565b5b610621825461040e565b61062c828285610568565b600060209050601f83116001811461065f576000841561064d578287015190505b61065785826105d9565b8655506106bf565b601f19841661066d8661043f565b60005b8281101561069557848901518255600182019150602085019450602081019050610670565b868310156106b257848901516106ae601f8916826105bb565b8355505b6001600288020188555050505b505050505050565b600073ffffffffffffffffffffffffffffffffffffffff82169050919050565b60006106f2826106c7565b9050919050565b610702816106e7565b82525050565b600060208201905061071d60008301846106f9565b92915050565b6130b7806107326000396000f3fe6080604052600436106101815760003560e01c8063715018a6116100d1578063c4e41b221161008a578063d85d3d2711610064578063d85d3d271461056e578063e30c39781461059e578063e985e9c5146105c9578063f2fde38b1461060657610181565b8063c4e41b22146104c9578063c87b56dd146104f4578063d636c6f11461053157610181565b8063715018a6146103f357806379ba50971461040a5780638da5cb5b1461042157806395d89b411461044c578063a22cb46514610477578063b88d4fde146104a057610181565b806332cb6b0c1161013e57806342842e0e1161011857806342842e0e146103255780635a64ad951461034e5780636352211e1461037957806370a08231146103b657610181565b806332cb6b0c146102a65780633ccfd60b146102d15780633d4392c0146102e857610181565b806301ffc9a71461018657806306fdde03146101c3578063081812fc146101ee578063095ea7b31461022b578063238a47091461025457806323b872dd1461027d575b600080fd5b34801561019257600080fd5b506101ad60048036038101906101a891906121f4565b61062f565b6040516101ba919061223c565b60405180910390f35b3480156101cf57600080fd5b506101d8610690565b6040516101e591906122e7565b60405180910390f35b3480156101fa57600080fd5b506102156004803603810190610210919061233f565b610722565b60405161022291906123ad565b60405180910390f35b34801561023757600080fd5b50610252600480360381019061024d91906123f4565b61073e565b005b34801561026057600080fd5b5061027b6004803603810190610276919061233f565b610754565b005b34801561028957600080fd5b506102a4600480360381019061029f9190612434565b6107a7565b005b3480156102b257600080fd5b506102bb6108a9565b6040516102c89190612496565b60405180910390f35b3480156102dd57600080fd5b506102e66108af565b005b3480156102f457600080fd5b5061030f600480360381019061030a91906124b1565b610a0b565b60405161031c919061259c565b60405180910390f35b34801561033157600080fd5b5061034c60048036038101906103479190612434565b610aee565b005b34801561035a57600080fd5b50610363610b0e565b6040516103709190612496565b60405180910390f35b34801561038557600080fd5b506103a0600480360381019061039b919061233f565b610b14565b6040516103ad91906123ad565b60405180910390f35b3480156103c257600080fd5b506103dd60048036038101906103d891906124b1565b610b26565b6040516103ea9190612496565b60405180910390f35b3480156103ff57600080fd5b50610408610be0565b005b34801561041657600080fd5b5061041f610bf4565b005b34801561042d57600080fd5b50610436610c83565b60405161044391906123ad565b60405180910390f35b34801561045857600080fd5b50610461610cad565b60405161046e91906122e7565b60405180910390f35b34801561048357600080fd5b5061049e600480360381019061049991906125ea565b610d3f565b005b3480156104ac57600080fd5b506104c760048036038101906104c2919061275f565b610d55565b005b3480156104d557600080fd5b506104de610d7a565b6040516104eb9190612496565b60405180910390f35b34801561050057600080fd5b5061051b6004803603810190610516919061233f565b610d84565b60405161052891906122e7565b60405180910390f35b34801561053d57600080fd5b50610558600480360381019061055391906124b1565b610e97565b6040516105659190612496565b60405180910390f35b61058860048036038101906105839190612883565b610ea9565b6040516105959190612496565b60405180910390f35b3480156105aa57600080fd5b506105b3610fbd565b6040516105c091906123ad565b60405180910390f35b3480156105d557600080fd5b506105f060048036038101906105eb91906128cc565b610fe7565b6040516105fd919061223c565b60405180910390f35b34801561061257600080fd5b5061062d600480360381019061062891906124b1565b61107b565b005b6000634906490660e01b7bffffffffffffffffffffffffffffffffffffffffffffffffffffffff1916827bffffffffffffffffffffffffffffffffffffffffffffffffffffffff19161480610689575061068882611128565b5b9050919050565b60606000805461069f9061293b565b80601f01602080910402602001604051908101604052809291908181526020018280546106cb9061293b565b80156107185780601f106106ed57610100808354040283529160200191610718565b820191906000526020600020905b8154815290600101906020018083116106fb57829003601f168201915b5050505050905090565b600061072d8261120a565b5061073782611292565b9050919050565b610750828261074b6112cf565b6112d7565b5050565b61075c6112e9565b6000600a54905081600a819055507fc24d648b8b29d6566f302551df9152ced5a44785e31f38d1d047c8168dd34519818360405161079b92919061296c565b60405180910390a15050565b600073ffffffffffffffffffffffffffffffffffffffff168273ffffffffffffffffffffffffffffffffffffffff16036108195760006040517f64a0ae9200000000000000000000000000000000000000000000000000000000815260040161081091906123ad565b60405180910390fd5b600061082d83836108286112cf565b611370565b90508373ffffffffffffffffffffffffffffffffffffffff168173ffffffffffffffffffffffffffffffffffffffff16146108a3578382826040517f64283d7b00000000000000000000000000000000000000000000000000000000815260040161089a93929190612995565b60405180910390fd5b50505050565b61271081565b6108b76112e9565b6000479050600081116108ff576040517f08c379a00000000000000000000000000000000000000000000000000000000081526004016108f690612a18565b60405180910390fd5b6000610909610c83565b73ffffffffffffffffffffffffffffffffffffffff168260405161092c90612a69565b60006040518083038185875af1925050503d8060008114610969576040519150601f19603f3d011682016040523d82523d6000602084013e61096e565b606091505b50509050806109b2576040517f08c379a00000000000000000000000000000000000000000000000000000000081526004016109a990612aca565b60405180910390fd5b6109ba610c83565b73ffffffffffffffffffffffffffffffffffffffff167feaff4b37086828766ad3268786972c0cd24259d4c87a80f9d3963a3c3d999b0d836040516109ff9190612496565b60405180910390a25050565b60606000610a1883610b26565b67ffffffffffffffff811115610a3157610a30612634565b5b604051908082528060200260200182016040528015610a5f5781602001602082028036833780820191505090505b5090506000805b600954811015610ae3578473ffffffffffffffffffffffffffffffffffffffff16610a908261158a565b73ffffffffffffffffffffffffffffffffffffffff1603610ad85780838380610ab890612b19565b945081518110610acb57610aca612b61565b5b6020026020010181815250505b806001019050610a66565b508192505050919050565b610b0983838360405180602001604052806000815250610d55565b505050565b600a5481565b6000610b1f8261120a565b9050919050565b60008073ffffffffffffffffffffffffffffffffffffffff168273ffffffffffffffffffffffffffffffffffffffff1603610b995760006040517f89c62b64000000000000000000000000000000000000000000000000000000008152600401610b9091906123ad565b60405180910390fd5b600360008373ffffffffffffffffffffffffffffffffffffffff1673ffffffffffffffffffffffffffffffffffffffff168152602001908152602001600020549050919050565b610be86112e9565b610bf260006115c7565b565b6000610bfe6112cf565b90508073ffffffffffffffffffffffffffffffffffffffff16610c1f610fbd565b73ffffffffffffffffffffffffffffffffffffffff1614610c7757806040517f118cdaa7000000000000000000000000000000000000000000000000000000008152600401610c6e91906123ad565b60405180910390fd5b610c80816115c7565b50565b6000600760009054906101000a900473ffffffffffffffffffffffffffffffffffffffff16905090565b606060018054610cbc9061293b565b80601f0160208091040260200160405190810160405280929190818152602001828054610ce89061293b565b8015610d355780601f10610d0a57610100808354040283529160200191610d35565b820191906000526020600020905b815481529060010190602001808311610d1857829003601f168201915b5050505050905090565b610d51610d4a6112cf565b83836115f8565b5050565b610d608484846107a7565b610d74610d6b6112cf565b85858585611767565b50505050565b6000600954905090565b6060610d8f8261120a565b506000600660008481526020019081526020016000208054610db09061293b565b80601f0160208091040260200160405190810160405280929190818152602001828054610ddc9061293b565b8015610e295780601f10610dfe57610100808354040283529160200191610e29565b820191906000526020600020905b815481529060010190602001808311610e0c57829003601f168201915b505050505090506000610e3a611918565b90506000815103610e4f578192505050610e92565b600082511115610e84578082604051602001610e6c929190612bcc565b60405160208183030381529060405292505050610e92565b610e8d8461192f565b925050505b919050565b6000610ea282610b26565b9050919050565b600061271060095410610ef1576040517f08c379a0000000000000000000000000000000000000000000000000000000008152600401610ee890612c3c565b60405180910390fd5b600a54341015610f36576040517f08c379a0000000000000000000000000000000000000000000000000000000008152600401610f2d90612ca8565b60405180910390fd5b600060096000815480929190610f4b90612b19565b919050559050610f5b3382611998565b610f658184611a91565b3373ffffffffffffffffffffffffffffffffffffffff16817f82a09cc58c9cecf0eb61d8994283ec804165931801f8b77e42dcb3b556c5c5be85604051610fac91906122e7565b60405180910390a380915050919050565b6000600860009054906101000a900473ffffffffffffffffffffffffffffffffffffffff16905090565b6000600560008473ffffffffffffffffffffffffffffffffffffffff1673ffffffffffffffffffffffffffffffffffffffff16815260200190815260200160002060008373ffffffffffffffffffffffffffffffffffffffff1673ffffffffffffffffffffffffffffffffffffffff16815260200190815260200160002060009054906101000a900460ff16905092915050565b6110836112e9565b80600860006101000a81548173ffffffffffffffffffffffffffffffffffffffff021916908373ffffffffffffffffffffffffffffffffffffffff1602179055508073ffffffffffffffffffffffffffffffffffffffff166110e3610c83565b73ffffffffffffffffffffffffffffffffffffffff167f38d16b8cac22d99fc7c124b9cd0de2d3fa1faef420bfe791d8c362d765e2270060405160405180910390a350565b60007f80ac58cd000000000000000000000000000000000000000000000000000000007bffffffffffffffffffffffffffffffffffffffffffffffffffffffff1916827bffffffffffffffffffffffffffffffffffffffffffffffffffffffff191614806111f357507f5b5e139f000000000000000000000000000000000000000000000000000000007bffffffffffffffffffffffffffffffffffffffffffffffffffffffff1916827bffffffffffffffffffffffffffffffffffffffffffffffffffffffff1916145b80611203575061120282611aed565b5b9050919050565b6000806112168361158a565b9050600073ffffffffffffffffffffffffffffffffffffffff168173ffffffffffffffffffffffffffffffffffffffff160361128957826040517f7e2732890000000000000000000000000000000000000000000000000000000081526004016112809190612496565b60405180910390fd5b80915050919050565b60006004600083815260200190815260200160002060009054906101000a900473ffffffffffffffffffffffffffffffffffffffff169050919050565b600033905090565b6112e48383836001611b57565b505050565b6112f16112cf565b73ffffffffffffffffffffffffffffffffffffffff1661130f610c83565b73ffffffffffffffffffffffffffffffffffffffff161461136e576113326112cf565b6040517f118cdaa700000000000000000000000000000000000000000000000000000000815260040161136591906123ad565b60405180910390fd5b565b60008061137c8461158a565b9050600073ffffffffffffffffffffffffffffffffffffffff168373ffffffffffffffffffffffffffffffffffffffff16146113be576113bd818486611d1c565b5b600073ffffffffffffffffffffffffffffffffffffffff168173ffffffffffffffffffffffffffffffffffffffff161461144f57611400600085600080611b57565b6001600360008373ffffffffffffffffffffffffffffffffffffffff1673ffffffffffffffffffffffffffffffffffffffff168152602001908152602001600020600082825403925050819055505b600073ffffffffffffffffffffffffffffffffffffffff168573ffffffffffffffffffffffffffffffffffffffff16146114d2576001600360008773ffffffffffffffffffffffffffffffffffffffff1673ffffffffffffffffffffffffffffffffffffffff168152602001908152602001600020600082825401925050819055505b846002600086815260200190815260200160002060006101000a81548173ffffffffffffffffffffffffffffffffffffffff021916908373ffffffffffffffffffffffffffffffffffffffff160217905550838573ffffffffffffffffffffffffffffffffffffffff168273ffffffffffffffffffffffffffffffffffffffff167fddf252ad1be2c89b69c2b068fc378daa952ba7f163c4a11628f55a4df523b3ef60405160405180910390a4809150509392505050565b60006002600083815260200190815260200160002060009054906101000a900473ffffffffffffffffffffffffffffffffffffffff169050919050565b600860006101000a81549073ffffffffffffffffffffffffffffffffffffffff02191690556115f581611de0565b50565b600073ffffffffffffffffffffffffffffffffffffffff168273ffffffffffffffffffffffffffffffffffffffff160361166957816040517f5b08ba1800000000000000000000000000000000000000000000000000000000815260040161166091906123ad565b60405180910390fd5b80600560008573ffffffffffffffffffffffffffffffffffffffff1673ffffffffffffffffffffffffffffffffffffffff16815260200190815260200160002060008473ffffffffffffffffffffffffffffffffffffffff1673ffffffffffffffffffffffffffffffffffffffff16815260200190815260200160002060006101000a81548160ff0219169083151502179055508173ffffffffffffffffffffffffffffffffffffffff168373ffffffffffffffffffffffffffffffffffffffff167f17307eab39ab6107e8899845ad3d59bd9653f200f220920489ca2b5937696c318360405161175a919061223c565b60405180910390a3505050565b60008373ffffffffffffffffffffffffffffffffffffffff163b1115611911578273ffffffffffffffffffffffffffffffffffffffff1663150b7a02868685856040518563ffffffff1660e01b81526004016117c69493929190612d1d565b6020604051808303816000875af192505050801561180257506040513d601f19601f820116820180604052508101906117ff9190612d7e565b60015b611886573d8060008114611832576040519150601f19603f3d011682016040523d82523d6000602084013e611837565b606091505b50600081510361187e57836040517f64a0ae9200000000000000000000000000000000000000000000000000000000815260040161187591906123ad565b60405180910390fd5b805160208201fd5b63150b7a0260e01b7bffffffffffffffffffffffffffffffffffffffffffffffffffffffff1916817bffffffffffffffffffffffffffffffffffffffffffffffffffffffff19161461190f57836040517f64a0ae9200000000000000000000000000000000000000000000000000000000815260040161190691906123ad565b60405180910390fd5b505b5050505050565b606060405180602001604052806000815250905090565b606061193a8261120a565b506000611945611918565b905060008151116119655760405180602001604052806000815250611990565b8061196f84611ea6565b604051602001611980929190612bcc565b6040516020818303038152906040525b915050919050565b600073ffffffffffffffffffffffffffffffffffffffff168273ffffffffffffffffffffffffffffffffffffffff1603611a0a5760006040517f64a0ae92000000000000000000000000000000000000000000000000000000008152600401611a0191906123ad565b60405180910390fd5b6000611a1883836000611370565b9050600073ffffffffffffffffffffffffffffffffffffffff168173ffffffffffffffffffffffffffffffffffffffff1614611a8c5760006040517f73c6ac6e000000000000000000000000000000000000000000000000000000008152600401611a8391906123ad565b60405180910390fd5b505050565b80600660008481526020019081526020016000209081611ab19190612f57565b507ff8e1a15aba9398e019f0b49df1a4fde98ee17ae345cb5f6b5e2c27f5033e8ce782604051611ae19190612496565b60405180910390a15050565b60007f01ffc9a7000000000000000000000000000000000000000000000000000000007bffffffffffffffffffffffffffffffffffffffffffffffffffffffff1916827bffffffffffffffffffffffffffffffffffffffffffffffffffffffff1916149050919050565b8080611b905750600073ffffffffffffffffffffffffffffffffffffffff168273ffffffffffffffffffffffffffffffffffffffff1614155b15611cc4576000611ba08461120a565b9050600073ffffffffffffffffffffffffffffffffffffffff168373ffffffffffffffffffffffffffffffffffffffff1614158015611c0b57508273ffffffffffffffffffffffffffffffffffffffff168173ffffffffffffffffffffffffffffffffffffffff1614155b8015611c1e5750611c1c8184610fe7565b155b15611c6057826040517fa9fbf51f000000000000000000000000000000000000000000000000000000008152600401611c5791906123ad565b60405180910390fd5b8115611cc257838573ffffffffffffffffffffffffffffffffffffffff168273ffffffffffffffffffffffffffffffffffffffff167f8c5be1e5ebec7d5bd14f71427d1e84f3dd0314c0f7b2291e5b200ac8c7c3b92560405160405180910390a45b505b836004600085815260200190815260200160002060006101000a81548173ffffffffffffffffffffffffffffffffffffffff021916908373ffffffffffffffffffffffffffffffffffffffff16021790555050505050565b611d27838383611f74565b611ddb57600073ffffffffffffffffffffffffffffffffffffffff168373ffffffffffffffffffffffffffffffffffffffff1603611d9c57806040517f7e273289000000000000000000000000000000000000000000000000000000008152600401611d939190612496565b60405180910390fd5b81816040517f177e802f000000000000000000000000000000000000000000000000000000008152600401611dd2929190613029565b60405180910390fd5b505050565b6000600760009054906101000a900473ffffffffffffffffffffffffffffffffffffffff16905081600760006101000a81548173ffffffffffffffffffffffffffffffffffffffff021916908373ffffffffffffffffffffffffffffffffffffffff1602179055508173ffffffffffffffffffffffffffffffffffffffff168173ffffffffffffffffffffffffffffffffffffffff167f8be0079c531659141344cd1fd0a4f28419497f9722a3daafe3b4186f6b6457e060405160405180910390a35050565b606060006001611eb584612035565b01905060008167ffffffffffffffff811115611ed457611ed3612634565b5b6040519080825280601f01601f191660200182016040528015611f065781602001600182028036833780820191505090505b509050600082602083010190505b600115611f69578080600190039150507f3031323334353637383961626364656600000000000000000000000000000000600a86061a8153600a8581611f5d57611f5c613052565b5b04945060008503611f14575b819350505050919050565b60008073ffffffffffffffffffffffffffffffffffffffff168373ffffffffffffffffffffffffffffffffffffffff161415801561202c57508273ffffffffffffffffffffffffffffffffffffffff168473ffffffffffffffffffffffffffffffffffffffff161480611fed5750611fec8484610fe7565b5b8061202b57508273ffffffffffffffffffffffffffffffffffffffff1661201383611292565b73ffffffffffffffffffffffffffffffffffffffff16145b5b90509392505050565b600080600090507a184f03e93ff9f4daa797ed6e38ed64bf6a1f0100000000000000008310612093577a184f03e93ff9f4daa797ed6e38ed64bf6a1f010000000000000000838161208957612088613052565b5b0492506040810190505b6d04ee2d6d415b85acef810000000083106120d0576d04ee2d6d415b85acef810000000083816120c6576120c5613052565b5b0492506020810190505b662386f26fc1000083106120ff57662386f26fc1000083816120f5576120f4613052565b5b0492506010810190505b6305f5e1008310612128576305f5e100838161211e5761211d613052565b5b0492506008810190505b612710831061214d57612710838161214357612142613052565b5b0492506004810190505b60648310612170576064838161216657612165613052565b5b0492506002810190505b600a831061217f576001810190505b80915050919050565b6000604051905090565b600080fd5b600080fd5b60007fffffffff0000000000000000000000000000000000000000000000000000000082169050919050565b6121d18161219c565b81146121dc57600080fd5b50565b6000813590506121ee816121c8565b92915050565b60006020828403121561220a57612209612192565b5b6000612218848285016121df565b91505092915050565b60008115159050919050565b61223681612221565b82525050565b6000602082019050612251600083018461222d565b92915050565b600081519050919050565b600082825260208201905092915050565b60005b83811015612291578082015181840152602081019050612276565b60008484015250505050565b6000601f19601f8301169050919050565b60006122b982612257565b6122c38185612262565b93506122d3818560208601612273565b6122dc8161229d565b840191505092915050565b6000602082019050818103600083015261230181846122ae565b905092915050565b6000819050919050565b61231c81612309565b811461232757600080fd5b50565b60008135905061233981612313565b92915050565b60006020828403121561235557612354612192565b5b60006123638482850161232a565b91505092915050565b600073ffffffffffffffffffffffffffffffffffffffff82169050919050565b60006123978261236c565b9050919050565b6123a78161238c565b82525050565b60006020820190506123c2600083018461239e565b92915050565b6123d18161238c565b81146123dc57600080fd5b50565b6000813590506123ee816123c8565b92915050565b6000806040838503121561240b5761240a612192565b5b6000612419858286016123df565b925050602061242a8582860161232a565b9150509250929050565b60008060006060848603121561244d5761244c612192565b5b600061245b868287016123df565b935050602061246c868287016123df565b925050604061247d8682870161232a565b9150509250925092565b61249081612309565b82525050565b60006020820190506124ab6000830184612487565b92915050565b6000602082840312156124c7576124c6612192565b5b60006124d5848285016123df565b91505092915050565b600081519050919050565b600082825260208201905092915050565b6000819050602082019050919050565b61251381612309565b82525050565b6000612525838361250a565b60208301905092915050565b6000602082019050919050565b6000612549826124de565b61255381856124e9565b935061255e836124fa565b8060005b8381101561258f5781516125768882612519565b975061258183612531565b925050600181019050612562565b5085935050505092915050565b600060208201905081810360008301526125b6818461253e565b905092915050565b6125c781612221565b81146125d257600080fd5b50565b6000813590506125e4816125be565b92915050565b6000806040838503121561260157612600612192565b5b600061260f858286016123df565b9250506020612620858286016125d5565b9150509250929050565b600080fd5b600080fd5b7f4e487b7100000000000000000000000000000000000000000000000000000000600052604160045260246000fd5b61266c8261229d565b810181811067ffffffffffffffff8211171561268b5761268a612634565b5b80604052505050565b600061269e612188565b90506126aa8282612663565b919050565b600067ffffffffffffffff8211156126ca576126c9612634565b5b6126d38261229d565b9050602081019050919050565b82818337600083830152505050565b60006127026126fd846126af565b612694565b90508281526020810184848401111561271e5761271d61262f565b5b6127298482856126e0565b509392505050565b600082601f8301126127465761274561262a565b5b81356127568482602086016126ef565b91505092915050565b6000806000806080858703121561277957612778612192565b5b6000612787878288016123df565b9450506020612798878288016123df565b93505060406127a98782880161232a565b925050606085013567ffffffffffffffff8111156127ca576127c9612197565b5b6127d687828801612731565b91505092959194509250565b600067ffffffffffffffff8211156127fd576127fc612634565b5b6128068261229d565b9050602081019050919050565b6000612826612821846127e2565b612694565b9050828152602081018484840111156128425761284161262f565b5b61284d8482856126e0565b509392505050565b600082601f83011261286a5761286961262a565b5b813561287a848260208601612813565b91505092915050565b60006020828403121561289957612898612192565b5b600082013567ffffffffffffffff8111156128b7576128b6612197565b5b6128c384828501612855565b91505092915050565b600080604083850312156128e3576128e2612192565b5b60006128f1858286016123df565b9250506020612902858286016123df565b9150509250929050565b7f4e487b7100000000000000000000000000000000000000000000000000000000600052602260045260246000fd5b6000600282049050600182168061295357607f821691505b6020821081036129665761296561290c565b5b50919050565b60006040820190506129816000830185612487565b61298e6020830184612487565b9392505050565b60006060820190506129aa600083018661239e565b6129b76020830185612487565b6129c4604083018461239e565b949350505050565b7f4e6f2066756e647320746f207769746864726177000000000000000000000000600082015250565b6000612a02601483612262565b9150612a0d826129cc565b602082019050919050565b60006020820190508181036000830152612a31816129f5565b9050919050565b600081905092915050565b50565b6000612a53600083612a38565b9150612a5e82612a43565b600082019050919050565b6000612a7482612a46565b9150819050919050565b7f5769746864726177616c206661696c6564000000000000000000000000000000600082015250565b6000612ab4601183612262565b9150612abf82612a7e565b602082019050919050565b60006020820190508181036000830152612ae381612aa7565b9050919050565b7f4e487b7100000000000000000000000000000000000000000000000000000000600052601160045260246000fd5b6000612b2482612309565b91507fffffffffffffffffffffffffffffffffffffffffffffffffffffffffffffffff8203612b5657612b55612aea565b5b600182019050919050565b7f4e487b7100000000000000000000000000000000000000000000000000000000600052603260045260246000fd5b600081905092915050565b6000612ba682612257565b612bb08185612b90565b9350612bc0818560208601612273565b80840191505092915050565b6000612bd88285612b9b565b9150612be48284612b9b565b91508190509392505050565b7f4d617820737570706c7920726561636865640000000000000000000000000000600082015250565b6000612c26601283612262565b9150612c3182612bf0565b602082019050919050565b60006020820190508181036000830152612c5581612c19565b9050919050565b7f496e73756666696369656e74206d696e74696e67206665650000000000000000600082015250565b6000612c92601883612262565b9150612c9d82612c5c565b602082019050919050565b60006020820190508181036000830152612cc181612c85565b9050919050565b600081519050919050565b600082825260208201905092915050565b6000612cef82612cc8565b612cf98185612cd3565b9350612d09818560208601612273565b612d128161229d565b840191505092915050565b6000608082019050612d32600083018761239e565b612d3f602083018661239e565b612d4c6040830185612487565b8181036060830152612d5e8184612ce4565b905095945050505050565b600081519050612d78816121c8565b92915050565b600060208284031215612d9457612d93612192565b5b6000612da284828501612d69565b91505092915050565b60008190508160005260206000209050919050565b60006020601f8301049050919050565b600082821b905092915050565b600060088302612e0d7fffffffffffffffffffffffffffffffffffffffffffffffffffffffffffffffff82612dd0565b612e178683612dd0565b95508019841693508086168417925050509392505050565b6000819050919050565b6000612e54612e4f612e4a84612309565b612e2f565b612309565b9050919050565b6000819050919050565b612e6e83612e39565b612e82612e7a82612e5b565b848454612ddd565b825550505050565b600090565b612e97612e8a565b612ea2818484612e65565b505050565b5b81811015612ec657612ebb600082612e8f565b600181019050612ea8565b5050565b601f821115612f0b57612edc81612dab565b612ee584612dc0565b81016020851015612ef4578190505b612f08612f0085612dc0565b830182612ea7565b50505b505050565b600082821c905092915050565b6000612f2e60001984600802612f10565b1980831691505092915050565b6000612f478383612f1d565b9150826002028217905092915050565b612f6082612257565b67ffffffffffffffff811115612f7957612f78612634565b5b612f83825461293b565b612f8e828285612eca565b600060209050601f831160018114612fc15760008415612faf578287015190505b612fb98582612f3b565b865550613021565b601f198416612fcf86612dab565b60005b82811015612ff757848901518255600182019150602085019450602081019050612fd2565b868310156130145784890151613010601f891682612f1d565b8355505b6001600288020188555050505b505050505050565b600060408201905061303e600083018561239e565b61304b6020830184612487565b9392505050565b7f4e487b7100000000000000000000000000000000000000000000000000000000600052601260045260246000fdfea26469706673582212202a6493c180d7c07aa71df6459fa0f91e26eb5195129d0cfa8b819e7eee69b9d864736f6c634300081c0033",
  "linkReferences": {},
  "deployedLinkReferences": {}
}